{
  "_format": "hh-sol-artifact-1",
  "contractName": "StarsPlatform",
  "sourceName": "contracts/StarsPlatform.sol",
  "abi": [
    {
      "inputs": [
        {
          "internalType": "address",
          "name": "_starsToken",
          "type": "address"
        },
        {
          "internalType": "address",
          "name": "_initialOwner",
          "type": "address"
        }
      ],
      "stateMutability": "nonpayable",
      "type": "constructor"
    },
    {
      "inputs": [
        {
          "internalType": "address",
          "name": "owner",
          "type": "address"
        }
      ],
      "name": "OwnableInvalidOwner",
      "type": "error"
    },
    {
      "inputs": [
        {
          "internalType": "address",
          "name": "account",
          "type": "address"
        }
      ],
      "name": "OwnableUnauthorizedAccount",
      "type": "error"
    },
    {
      "anonymous": false,
      "inputs": [
        {
          "indexed": false,
          "internalType": "address",
          "name": "user",
          "type": "address"
        },
        {
          "indexed": false,
          "internalType": "string",
          "name": "feature",
          "type": "string"
        },
        {
          "indexed": false,
          "internalType": "uint256",
          "name": "cost",
          "type": "uint256"
        }
      ],
      "name": "FeatureUnlocked",
      "type": "event"
    },
    {
      "anonymous": false,
      "inputs": [
        {
          "indexed": false,
          "internalType": "address",
          "name": "from",
          "type": "address"
        },
        {
          "indexed": false,
          "internalType": "address",
          "name": "to",
          "type": "address"
        },
        {
          "indexed": false,
          "internalType": "uint256",
          "name": "amount",
          "type": "uint256"
        }
      ],
      "name": "GiftSent",
      "type": "event"
    },
    {
      "anonymous": false,
      "inputs": [
        {
          "indexed": true,
          "internalType": "address",
          "name": "previousOwner",
          "type": "address"
        },
        {
          "indexed": true,
          "internalType": "address",
          "name": "newOwner",
          "type": "address"
        }
      ],
      "name": "OwnershipTransferred",
      "type": "event"
    },
    {
      "anonymous": false,
      "inputs": [
        {
          "indexed": false,
          "internalType": "address",
          "name": "buyer",
          "type": "address"
        },
        {
          "indexed": false,
          "internalType": "uint256",
          "name": "amount",
          "type": "uint256"
        }
      ],
      "name": "TokensPurchased",
      "type": "event"
    },
    {
      "inputs": [],
      "name": "buyStars",
      "outputs": [],
      "stateMutability": "payable",
      "type": "function"
    },
    {
      "inputs": [
        {
          "internalType": "string",
          "name": "",
          "type": "string"
        }
      ],
      "name": "featurePrices",
      "outputs": [
        {
          "internalType": "uint256",
          "name": "",
          "type": "uint256"
        }
      ],
      "stateMutability": "view",
      "type": "function"
    },
    {
      "inputs": [
        {
          "internalType": "address",
          "name": "recipient",
          "type": "address"
        },
        {
          "internalType": "uint256",
          "name": "amount",
          "type": "uint256"
        }
      ],
      "name": "giftStars",
      "outputs": [],
      "stateMutability": "nonpayable",
      "type": "function"
    },
    {
      "inputs": [],
      "name": "owner",
      "outputs": [
        {
          "internalType": "address",
          "name": "",
          "type": "address"
        }
      ],
      "stateMutability": "view",
      "type": "function"
    },
    {
      "inputs": [],
      "name": "rate",
      "outputs": [
        {
          "internalType": "uint256",
          "name": "",
          "type": "uint256"
        }
      ],
      "stateMutability": "view",
      "type": "function"
    },
    {
      "inputs": [
        {
          "internalType": "uint256",
          "name": "amount",
          "type": "uint256"
        }
      ],
      "name": "refillStars",
      "outputs": [],
      "stateMutability": "nonpayable",
      "type": "function"
    },
    {
      "inputs": [],
      "name": "renounceOwnership",
      "outputs": [],
      "stateMutability": "nonpayable",
      "type": "function"
    },
    {
      "inputs": [
        {
          "internalType": "string",
          "name": "feature",
          "type": "string"
        },
        {
          "internalType": "uint256",
          "name": "price",
          "type": "uint256"
        }
      ],
      "name": "setFeaturePrice",
      "outputs": [],
      "stateMutability": "nonpayable",
      "type": "function"
    },
    {
      "inputs": [],
      "name": "starsToken",
      "outputs": [
        {
          "internalType": "contract IERC20",
          "name": "",
          "type": "address"
        }
      ],
      "stateMutability": "view",
      "type": "function"
    },
    {
      "inputs": [
        {
          "internalType": "address",
          "name": "newOwner",
          "type": "address"
        }
      ],
      "name": "transferOwnership",
      "outputs": [],
      "stateMutability": "nonpayable",
      "type": "function"
    },
    {
      "inputs": [
        {
          "internalType": "string",
          "name": "feature",
          "type": "string"
        }
      ],
      "name": "unlockFeature",
      "outputs": [],
      "stateMutability": "nonpayable",
      "type": "function"
    },
    {
      "inputs": [],
      "name": "withdrawMATIC",
      "outputs": [],
      "stateMutability": "nonpayable",
      "type": "function"
    },
    {
      "inputs": [
        {
          "internalType": "uint256",
          "name": "amount",
          "type": "uint256"
        }
      ],
      "name": "withdrawStars",
      "outputs": [],
      "stateMutability": "nonpayable",
      "type": "function"
    }
  ],
  "bytecode": "0x6080604052606460025534801561001557600080fd5b5060405161190138038061190183398181016040528101906100379190610229565b80600073ffffffffffffffffffffffffffffffffffffffff168173ffffffffffffffffffffffffffffffffffffffff16036100aa5760006040517f1e4fbdf70000000000000000000000000000000000000000000000000000000081526004016100a19190610278565b60405180910390fd5b6100b98161010260201b60201c565b5081600160006101000a81548173ffffffffffffffffffffffffffffffffffffffff021916908373ffffffffffffffffffffffffffffffffffffffff1602179055505050610293565b60008060009054906101000a900473ffffffffffffffffffffffffffffffffffffffff169050816000806101000a81548173ffffffffffffffffffffffffffffffffffffffff021916908373ffffffffffffffffffffffffffffffffffffffff1602179055508173ffffffffffffffffffffffffffffffffffffffff168173ffffffffffffffffffffffffffffffffffffffff167f8be0079c531659141344cd1fd0a4f28419497f9722a3daafe3b4186f6b6457e060405160405180910390a35050565b600080fd5b600073ffffffffffffffffffffffffffffffffffffffff82169050919050565b60006101f6826101cb565b9050919050565b610206816101eb565b811461021157600080fd5b50565b600081519050610223816101fd565b92915050565b600080604083850312156102405761023f6101c6565b5b600061024e85828601610214565b925050602061025f85828601610214565b9150509250929050565b610272816101eb565b82525050565b600060208201905061028d6000830184610269565b92915050565b61165f806102a26000396000f3fe6080604052600436106100c25760003560e01c8063d861112c1161007f578063f012a8d911610059578063f012a8d91461021a578063f2fde38b14610257578063f61122cd14610280578063fa891ce61461028a576100c2565b8063d861112c146101b1578063d99f6668146101da578063e040da63146101f1576100c2565b80632c4e722e146100c75780634531b00d146100f2578063715018a61461011d5780638da5cb5b14610134578063b6d0df871461015f578063ba4376c214610188575b600080fd5b3480156100d357600080fd5b506100dc6102b3565b6040516100e99190610c63565b60405180910390f35b3480156100fe57600080fd5b506101076102b9565b6040516101149190610cfd565b60405180910390f35b34801561012957600080fd5b506101326102df565b005b34801561014057600080fd5b506101496102f3565b6040516101569190610d39565b60405180910390f35b34801561016b57600080fd5b5061018660048036038101906101819190610dc0565b61031c565b005b34801561019457600080fd5b506101af60048036038101906101aa9190610e65565b61047f565b005b3480156101bd57600080fd5b506101d860048036038101906101d39190610eb2565b61060a565b005b3480156101e657600080fd5b506101ef61063c565b005b3480156101fd57600080fd5b5061021860048036038101906102139190610f12565b610694565b005b34801561022657600080fd5b50610241600480360381019061023c9190611080565b610742565b60405161024e9190610c63565b60405180910390f35b34801561026357600080fd5b5061027e600480360381019061027991906110c9565b610770565b005b6102886107f6565b005b34801561029657600080fd5b506102b160048036038101906102ac9190610f12565b610a06565b005b60025481565b600160009054906101000a900473ffffffffffffffffffffffffffffffffffffffff1681565b6102e7610af7565b6102f16000610b7e565b565b60008060009054906101000a900473ffffffffffffffffffffffffffffffffffffffff16905090565b6000811161035f576040517f08c379a000000000000000000000000000000000000000000000000000000000815260040161035690611153565b60405180910390fd5b600160009054906101000a900473ffffffffffffffffffffffffffffffffffffffff1673ffffffffffffffffffffffffffffffffffffffff166323b872dd3384846040518463ffffffff1660e01b81526004016103be93929190611173565b6020604051808303816000875af11580156103dd573d6000803e3d6000fd5b505050506040513d601f19601f8201168201806040525081019061040191906111e2565b610440576040517f08c379a00000000000000000000000000000000000000000000000000000000081526004016104379061125b565b60405180910390fd5b7f8625eddca22ec64a6ce0542a0c26fd68dc6d6f8f7f62842f10247556027a8b4c33838360405161047393929190611173565b60405180910390a15050565b6000600383836040516104939291906112ab565b9081526020016040518091039020549050600081116104e7576040517f08c379a00000000000000000000000000000000000000000000000000000000081526004016104de90611310565b60405180910390fd5b600160009054906101000a900473ffffffffffffffffffffffffffffffffffffffff1673ffffffffffffffffffffffffffffffffffffffff166323b872dd3330846040518463ffffffff1660e01b815260040161054693929190611173565b6020604051808303816000875af1158015610565573d6000803e3d6000fd5b505050506040513d601f19601f8201168201806040525081019061058991906111e2565b6105c8576040517f08c379a00000000000000000000000000000000000000000000000000000000081526004016105bf9061137c565b60405180910390fd5b7f636fb66ad5cbe5f3aa0cd4badf444617284d309677f0a52664e111e8f8a278d8338484846040516105fd94939291906113c9565b60405180910390a1505050565b610612610af7565b80600384846040516106259291906112ab565b908152602001604051809103902081905550505050565b610644610af7565b61064c6102f3565b73ffffffffffffffffffffffffffffffffffffffff166108fc479081150290604051600060405180830381858888f19350505050158015610691573d6000803e3d6000fd5b50565b61069c610af7565b600160009054906101000a900473ffffffffffffffffffffffffffffffffffffffff1673ffffffffffffffffffffffffffffffffffffffff166323b872dd3330846040518463ffffffff1660e01b81526004016106fb93929190611173565b6020604051808303816000875af115801561071a573d6000803e3d6000fd5b505050506040513d601f19601f8201168201806040525081019061073e91906111e2565b5050565b6003818051602081018201805184825260208301602085012081835280955050505050506000915090505481565b610778610af7565b600073ffffffffffffffffffffffffffffffffffffffff168173ffffffffffffffffffffffffffffffffffffffff16036107ea5760006040517f1e4fbdf70000000000000000000000000000000000000000000000000000000081526004016107e19190610d39565b60405180910390fd5b6107f381610b7e565b50565b60003411610839576040517f08c379a000000000000000000000000000000000000000000000000000000000815260040161083090611455565b60405180910390fd5b60006002543461084991906114a4565b905080600160009054906101000a900473ffffffffffffffffffffffffffffffffffffffff1673ffffffffffffffffffffffffffffffffffffffff166370a08231306040518263ffffffff1660e01b81526004016108a79190610d39565b602060405180830381865afa1580156108c4573d6000803e3d6000fd5b505050506040513d601f19601f820116820180604052508101906108e891906114fb565b1015610929576040517f08c379a000000000000000000000000000000000000000000000000000000000815260040161092090611574565b60405180910390fd5b600160009054906101000a900473ffffffffffffffffffffffffffffffffffffffff1673ffffffffffffffffffffffffffffffffffffffff1663a9059cbb33836040518363ffffffff1660e01b8152600401610986929190611594565b6020604051808303816000875af11580156109a5573d6000803e3d6000fd5b505050506040513d601f19601f820116820180604052508101906109c991906111e2565b507f8f28852646c20cc973d3a8218f7eefed58c25c909f78f0265af4818c3d4dc27133826040516109fb929190611594565b60405180910390a150565b610a0e610af7565b600160009054906101000a900473ffffffffffffffffffffffffffffffffffffffff1673ffffffffffffffffffffffffffffffffffffffff1663a9059cbb610a546102f3565b836040518363ffffffff1660e01b8152600401610a72929190611594565b6020604051808303816000875af1158015610a91573d6000803e3d6000fd5b505050506040513d601f19601f82011682018060405250810190610ab591906111e2565b610af4576040517f08c379a0000000000000000000000000000000000000000000000000000000008152600401610aeb90611609565b60405180910390fd5b50565b610aff610c42565b73ffffffffffffffffffffffffffffffffffffffff16610b1d6102f3565b73ffffffffffffffffffffffffffffffffffffffff1614610b7c57610b40610c42565b6040517f118cdaa7000000000000000000000000000000000000000000000000000000008152600401610b739190610d39565b60405180910390fd5b565b60008060009054906101000a900473ffffffffffffffffffffffffffffffffffffffff169050816000806101000a81548173ffffffffffffffffffffffffffffffffffffffff021916908373ffffffffffffffffffffffffffffffffffffffff1602179055508173ffffffffffffffffffffffffffffffffffffffff168173ffffffffffffffffffffffffffffffffffffffff167f8be0079c531659141344cd1fd0a4f28419497f9722a3daafe3b4186f6b6457e060405160405180910390a35050565b600033905090565b6000819050919050565b610c5d81610c4a565b82525050565b6000602082019050610c786000830184610c54565b92915050565b600073ffffffffffffffffffffffffffffffffffffffff82169050919050565b6000819050919050565b6000610cc3610cbe610cb984610c7e565b610c9e565b610c7e565b9050919050565b6000610cd582610ca8565b9050919050565b6000610ce782610cca565b9050919050565b610cf781610cdc565b82525050565b6000602082019050610d126000830184610cee565b92915050565b6000610d2382610c7e565b9050919050565b610d3381610d18565b82525050565b6000602082019050610d4e6000830184610d2a565b92915050565b6000604051905090565b600080fd5b600080fd5b610d7181610d18565b8114610d7c57600080fd5b50565b600081359050610d8e81610d68565b92915050565b610d9d81610c4a565b8114610da857600080fd5b50565b600081359050610dba81610d94565b92915050565b60008060408385031215610dd757610dd6610d5e565b5b6000610de585828601610d7f565b9250506020610df685828601610dab565b9150509250929050565b600080fd5b600080fd5b600080fd5b60008083601f840112610e2557610e24610e00565b5b8235905067ffffffffffffffff811115610e4257610e41610e05565b5b602083019150836001820283011115610e5e57610e5d610e0a565b5b9250929050565b60008060208385031215610e7c57610e7b610d5e565b5b600083013567ffffffffffffffff811115610e9a57610e99610d63565b5b610ea685828601610e0f565b92509250509250929050565b600080600060408486031215610ecb57610eca610d5e565b5b600084013567ffffffffffffffff811115610ee957610ee8610d63565b5b610ef586828701610e0f565b93509350506020610f0886828701610dab565b9150509250925092565b600060208284031215610f2857610f27610d5e565b5b6000610f3684828501610dab565b91505092915050565b600080fd5b6000601f19601f8301169050919050565b7f4e487b7100000000000000000000000000000000000000000000000000000000600052604160045260246000fd5b610f8d82610f44565b810181811067ffffffffffffffff82111715610fac57610fab610f55565b5b80604052505050565b6000610fbf610d54565b9050610fcb8282610f84565b919050565b600067ffffffffffffffff821115610feb57610fea610f55565b5b610ff482610f44565b9050602081019050919050565b82818337600083830152505050565b600061102361101e84610fd0565b610fb5565b90508281526020810184848401111561103f5761103e610f3f565b5b61104a848285611001565b509392505050565b600082601f83011261106757611066610e00565b5b8135611077848260208601611010565b91505092915050565b60006020828403121561109657611095610d5e565b5b600082013567ffffffffffffffff8111156110b4576110b3610d63565b5b6110c084828501611052565b91505092915050565b6000602082840312156110df576110de610d5e565b5b60006110ed84828501610d7f565b91505092915050565b600082825260208201905092915050565b7f496e76616c696420616d6f756e74000000000000000000000000000000000000600082015250565b600061113d600e836110f6565b915061114882611107565b602082019050919050565b6000602082019050818103600083015261116c81611130565b9050919050565b60006060820190506111886000830186610d2a565b6111956020830185610d2a565b6111a26040830184610c54565b949350505050565b60008115159050919050565b6111bf816111aa565b81146111ca57600080fd5b50565b6000815190506111dc816111b6565b92915050565b6000602082840312156111f8576111f7610d5e565b5b6000611206848285016111cd565b91505092915050565b7f5472616e73666572206661696c65640000000000000000000000000000000000600082015250565b6000611245600f836110f6565b91506112508261120f565b602082019050919050565b6000602082019050818103600083015261127481611238565b9050919050565b600081905092915050565b6000611292838561127b565b935061129f838584611001565b82840190509392505050565b60006112b8828486611286565b91508190509392505050565b7f46656174757265206e6f7420617661696c61626c650000000000000000000000600082015250565b60006112fa6015836110f6565b9150611305826112c4565b602082019050919050565b60006020820190508181036000830152611329816112ed565b9050919050565b7f5061796d656e74206661696c6564000000000000000000000000000000000000600082015250565b6000611366600e836110f6565b915061137182611330565b602082019050919050565b6000602082019050818103600083015261139581611359565b9050919050565b60006113a883856110f6565b93506113b5838584611001565b6113be83610f44565b840190509392505050565b60006060820190506113de6000830187610d2a565b81810360208301526113f181858761139c565b90506114006040830184610c54565b95945050505050565b7f53656e64204d4154494320746f20627579205374617273000000000000000000600082015250565b600061143f6017836110f6565b915061144a82611409565b602082019050919050565b6000602082019050818103600083015261146e81611432565b9050919050565b7f4e487b7100000000000000000000000000000000000000000000000000000000600052601160045260246000fd5b60006114af82610c4a565b91506114ba83610c4a565b92508282026114c881610c4a565b915082820484148315176114df576114de611475565b5b5092915050565b6000815190506114f581610d94565b92915050565b60006020828403121561151157611510610d5e565b5b600061151f848285016114e6565b91505092915050565b7f4e6f7420656e6f75676820537461727320696e20636f6e747261637400000000600082015250565b600061155e601c836110f6565b915061156982611528565b602082019050919050565b6000602082019050818103600083015261158d81611551565b9050919050565b60006040820190506115a96000830185610d2a565b6115b66020830184610c54565b9392505050565b7f5769746864726177206661696c65640000000000000000000000000000000000600082015250565b60006115f3600f836110f6565b91506115fe826115bd565b602082019050919050565b60006020820190508181036000830152611622816115e6565b905091905056fea264697066735822122020c3305aa5ddd155a0118da489220d09f19f11d243365e9ce4629e4b3ccc3e5f64736f6c634300081c0033",
  "linkReferences": {},
  "deployedLinkReferences": {}
}